:020000040000FA
:100000000C945D000C9485000C9485000C94850084
:100010000C9485000C9485000C9485000C9485004C
:100020000C9485000C9485000C9485000C9485003C
:100030000C9485000C9485000C9485000C9485002C
:100040000C9428040C9485000C9498040C9472046D
:100050000C9485000C9485000C9485000C9485000C
:100060000C94CA040C9485000000000800020100F2
:100070000003040700000000000000000000000072
:10008000250028002B0000000000240027002A0083
:10009000040404040404040402020202020203032E
:1000A0000303030301020408102040800102040836
:1000B0001020010204081020E50511241FBECFEF17
:1000C000D8E0DEBFCDBF11E0A0E0B1E0E2E9FEE0A4
:1000D00002C005900D92AC33B107D9F722E0ACE332
:1000E000B1E001C01D92A037B207E1F710E0CDE505
:1000F000D0E004C02197FE010E944107CC35D10712
:10010000C9F70E942F060C9447070C94000090E05A
:10011000FC01EC55FF4F249180579F4FFC018491C7
:10012000882399F090E0880F991FFC01EA57FF4F50
:10013000A591B491FC01E458FF4F859194918FB73C
:10014000F894EC91E22BEC938FBF089590E0FC01C2
:10015000E859FF4F2491FC01EC55FF4F3491FC010D
:10016000E057FF4FE491EE23C9F0222339F023300A
:1001700001F1A8F4213019F1223029F1F0E0EE0F5D
:10018000FF1FE458FF4FA591B4918FB7F894EC91FD
:10019000611126C030953E233C938FBF08952730D0
:1001A000A9F02830C9F0243049F7809180008F7D74
:1001B00003C0809180008F7780938000DFCF84B56B
:1001C0008F7784BDDBCF84B58F7DFBCF8091B0006E
:1001D0008F778093B000D2CF8091B0008F7DF9CF20
:1001E0003E2BDACFAF92BF92CF92DF92EF92FF9287
:1001F0000F931F93CF93DF936C017B018B01040F4F
:10020000151FEB015E01AE18BF08C017D10759F0EA
:100210006991D601ED91FC910190F081E02DC6012C
:100220000995892B79F7C501DF91CF911F910F9126
:10023000FF90EF90DF90CF90BF90AF900895FC01BA
:10024000538D448D252F30E0842F90E0821B930B3B
:10025000541710F0CF96089501970895FC01918DE1
:10026000828D981761F0A28DAE0FBF2FB11D5D96E4
:100270008C91928D9F5F9F73928F90E008958FEF86
:100280009FEF0895FC01918D828D981731F0828D3A
:10029000E80FF11D858D90E008958FEF9FEF089591
:1002A000FC01918D228D892F90E0805C9F4F821BF5
:1002B00091098F73992708958BEB91E00E9450016B
:1002C00021E0892B09F420E0822F089580E090E05E
:1002D000892B29F00E945C0181110C940000089583
:1002E000FC01A48DA80FB92FB11DA35ABF4F2C91AB
:1002F000848D90E001968F739927848FA689B789A2
:100300002C93A089B1898C91837080648C93938D98
:10031000848D981306C00288F389E02D80818F7D3B
:1003200080830895EF92FF920F931F93CF93DF93F3
:10033000EC0181E0888F9B8D8C8D98131AC0E88921
:10034000F989808185FF15C09FB7F894EE89FF89F0
:100350006083E889F98980818370806480839FBF8E
:1003600081E090E0DF91CF911F910F91FF90EF908E
:100370000895F62E0B8D10E00F5F1F4F0F7311279E
:10038000E02E8C8D8E110CC00FB607FCFACFE889D9
:10039000F989808185FFF5CFCE010E947001F1CFF0
:1003A000EB8DEC0FFD2FF11DE35AFF4FF0829FB74D
:1003B000F8940B8FEA89FB8980818062CFCFCF933D
:1003C000DF93EC01888D8823B9F0AA89BB89E8897D
:1003D000F9898C9185FD03C0808186FD0DC00FB623
:1003E00007FCF7CF8C9185FFF2CF808185FFEDCFA1
:1003F000CE010E947001E9CFDF91CF910895209145
:100400006301260F3327331F21323105ECF420918D
:100410008701FC0190E080E0243069F082E00895DB
:10042000A09163012191AC014D5B5E4FA40FB52FEC
:10043000B11D2C930196861798F380916301680F84
:100440006093630180E0089581E0089508958FEF3F
:100450009FEF08958FEF9FEF089580913C0190E00A
:100460009195819591090895CF93DF93CB01EA018E
:10047000642F0E94FF01CE01DF91CF910895CF93A9
:10048000DF931F92CDB7DEB7698361E0CE0101969D
:100490000E94FF0181E090E00F90DF91CF910895DD
:1004A000089590E080E00895FC0101900020E9F7B4
:1004B0003197AF01481B590BBC0188E592E00C94C1
:1004C000F2001F93CF93DF9385ED8093BC00809162
:1004D0003F0190914001A0914101B09142010796E6
:1004E000A11DB11D23E0B695A795979587952A95EF
:1004F000D1F72091BC0024FD03C01092870152C0A7
:1005000040913F0150914001609141017091420141
:10051000452B462B472B69F30097A105B10541F008
:100520002AE22A95F1F700C00197A109B109E1CFAC
:1005300080913E01C1E0C0933D01882399F1D091A3
:10054000B8001091BA008091BC008A7B8093BC00F7
:1005500060E082E10E94A60060E083E10E94A600C4
:1005600010928701C09389011092880161E082E1B5
:100570000E94A60061E083E10E94A6008091B9007C
:100580008E7F8093B9008091B9008D7F8093B900F0
:1005900088E48093B80085E48093BC001093BA008F
:1005A000D093B800DF91CF911F910895CF93DF933F
:1005B000EC0160E08E810E94A60061E08E810E94C5
:1005C000A60060E08E810E94A6008BE891E0019772
:1005D000F1F7DF91CF910895CF92DF92EF92FF92E2
:1005E0000F931F93CF93DF936C017C0187E0E80E9C
:1005F000F11CD0E0C0E0062F10E0B8010C2E02C0C4
:10060000759567950A94E2F76170F70181917F0112
:100610000E94A6002196C430D10579F7C601DF916A
:10062000CF911F910F91FF90EF90DF90CF900C949E
:10063000D602CF92DF92EF92FF920F931F93CF9348
:10064000DF93EC01F62E642F8C810E94A6008D8131
:100650008F3F19F060E00E94A6000F2D10E08F85FB
:1006600084FF25C06E0187E0C80ED11CF12CE12C5F
:10067000B8010E2C02C0759567950A94E2F7617077
:10068000F60181916F010E94A600FFEFEF1AFF0AA9
:1006900088E0E816F10461F7CE01DF91CF911F9158
:1006A0000F91FF90EF90DF90CF900C94D602B8019D
:1006B00084E0759567958A95E1F7CE010E94EC027A
:1006C0006F2DCE01DF91CF911F910F91FF90EF9091
:1006D000DF90CF900C94EC0240E0682F88E592E028
:1006E0000C941903CF93DF93823029F49091670221
:1006F00098609093670280936B0210926C0280E482
:1007000080936D0280E180936E0280E580936F029A
:1007100080915C020E94870080915D028F3F11F002
:100720000E94870080915E020E948700C8E5D2E0A7
:100730009E01285532408091670284FD0AC084E002
:1007400090E02196281739073CF48E810E9487009B
:10075000EFCF88E090E0F5CF8BE39DE00197F1F7D4
:1007600060E080915C020E94A60060E080915E02E1
:100770000E94A60080915D028F3F19F060E00E9408
:10078000A6008091670284FD39C063E088E592E0AD
:100790000E94EC02CBE4D6E4CE010197F1F763E0CE
:1007A00088E592E00E94EC022197F1F763E088E58A
:1007B00092E00E94EC0283E592E00197F1F762E09B
:1007C00088E592E00E94EC028091670280620E94BC
:1007D0006C0384E0809368028CE00E946C0381E0EB
:1007E0000E946C038BE39FE10197F1F782E0809315
:1007F000690286E0DF91CF910C946C0380620E94C5
:100800006C038BE496E40197F1F7809167028062B4
:100810000E946C0383E592E00197F1F780916702F3
:1008200080620E946C03D0CF90916B02891710F008
:100830008FEF890FE82FF0E0E85AFD4F8489806838
:100840000C946C0341E00E94190381E090E008954C
:100850001F920F920FB60F9211242F933F938F93F5
:100860009F93AF93BF938091B7019091B801A091EE
:10087000B901B091BA013091B60123E0230F2D37B1
:1008800058F50196A11DB11D2093B6018093B701C3
:100890009093B801A093B901B093BA018091B201CD
:1008A0009091B301A091B401B091B5010196A11D41
:1008B000B11D8093B2019093B301A093B401B093A2
:1008C000B501BF91AF919F918F913F912F910F9063
:1008D0000FBE0F901F90189526E8230F0296A11DBA
:1008E000B11DD2CF1F920F920FB60F9211242F93EA
:1008F0003F934F935F936F937F938F939F93AF93A8
:10090000BF93EF93FF938BEB91E00E947001FF91F7
:10091000EF91BF91AF919F918F917F916F915F9177
:100920004F913F912F910F900FBE0F901F901895F0
:100930001F920F920FB60F9211242F938F939F93B4
:10094000EF93FF93E091CB01F091CC018081E09196
:10095000D101F091D20182FD1BC090818091D40120
:100960008F5F8F732091D501821741F0E091D40100
:10097000F0E0E554FE4F958F8093D401FF91EF9105
:100980009F918F912F910F900FBE0F901F901895F0
:100990008081F4CF1F920F920FB60F9211242F93E4
:1009A0003F934F935F936F937F938F939F93AF93F7
:1009B000BF93EF93FF938091B900887F803609F44D
:1009C0004AC0F0F5883209F4A5C018F5803109F461
:1009D00099C0B8F4882309F4F5C0883009F492C0AE
:1009E000FF91EF91BF91AF919F918F917F916F9107
:1009F0005F914F913F912F910F900FBE0F901F90DD
:100A00001895883109F486C0803251F780938601A9
:100A100014C0803409F49BC040F48033B9F38833A8
:100A2000F9F68093860185ECAEC0803509F483C069
:100A3000883509F494C0883499F60E946102D0CFB9
:100A4000883909F48AC038F5883729F050F4883697
:100A500011F0803729F683E0809387011092850199
:100A600055C0883809F479C0803919F0803809F008
:100A7000B7CF80918501803208F06FC0E091850189
:100A800081E08E0F809385018091BB00F0E0EB59EF
:100A9000FE4F80833BC0803B39F0D0F4803A09F4AC
:100AA00077C0883A09F09CCF84E080938701109248
:100AB000640110926301F0E0E0E009958091630128
:100AC00081110FC081E0809363011092430109C03E
:100AD000803C09F4A8CF883C09F4A5CF883B09F0F5
:100AE0007FCFE091640181E08E0F80936401F0E09C
:100AF000ED5BFE4F80818093BB00909164018091FB
:100B0000630129C08091AC018093BB0085EC809388
:100B1000BC0066CF9091AB018091AA01981758F55F
:100B2000E091AB0181E08E0F8093AB01F0E0E657DE
:100B3000FE4F8081E9CFE091AB0181E08E0F809381
:100B4000AB018091BB00F0E0E657FE4F80839091AF
:100B5000AB018091AA019817C8F285E8D8CFE0913F
:100B6000AB0181E08E0F8093AB018091BB00F0E080
:100B7000E657FE4F80838091890181115ECF81E02D
:100B80008093880184EA8093BC001092870128CF6B
:100B900085EC8093BC0010928701809185018032A2
:100BA00030F4E0918501F0E0EB59FE4F1082609146
:100BB000850170E085E691E0F0E0E0E009951092B3
:100BC00085010ECF1092860138CFEBEBF1E0138256
:100BD000128288EE93E0A0E0B0E084839583A68340
:100BE000B78384E091E09183808385EC90E09587E2
:100BF000848784EC90E09787868780EC90E0918BE7
:100C0000808B81EC90E0938B828B82EC90E0958BD3
:100C1000848B86EC90E0978B868B118E128E138ED0
:100C2000148EE8E5F2E01382128286E191E091836E
:100C3000808387E084838FEF858386E0868385E0E9
:100C4000878384E0808783E0818782E082871386C0
:100C5000148615861686178681E00C9472037894A4
:100C600084B5826084BD84B5816084BD85B58260B1
:100C700085BD85B5816085BD80916E008160809362
:100C80006E001092810080918100826080938100CB
:100C900080918100816080938100809180008160DB
:100CA000809380008091B10084608093B100809136
:100CB000B00081608093B00080917A00846080935E
:100CC0007A0080917A00826080937A0080917A0025
:100CD000816080937A0080917A00806880937A00A6
:100CE0001092C10082E00E9472038DE00E94870092
:100CF0008CE00E948700E091CB01F091CC0182E072
:100D00008083E091C701F091C8011082E091C90190
:100D1000F091CA018FEC80831092D301E091CF0152
:100D2000F091D00186E08083E091CD01F091CE0179
:100D3000808180618083E091CD01F091CE0180813E
:100D400088608083E091CD01F091CE018081806840
:100D50008083E091CD01F091CE0180818F7D8083F1
:100D600080E00E9414048EE191E00E9454020BE3A3
:100D70001FE1C0E0D0E0FF24F3948BEB91E00E94F0
:100D80005001181619065CF58BEB91E00E942E01BC
:100D9000863509F066C081E00E94140489E291E082
:100DA0000E94540261E08DE00E94A60060E08CE0A9
:100DB0000E94A6002FB7F8948091B7019091B801D6
:100DC000A091B901B091BA012FBF8093AE01909369
:100DD000AF01A093B001B093B101F092AD01809149
:100DE000AD01882399F12FB7F8948091B7019091C4
:100DF000B801A091B901B091BA012FBF4091AE01E5
:100E00005091AF016091B0017091B101841B950BBD
:100E1000A60BB70B883B9B40A105B105B8F081E05C
:100E20000E946C03C8010197F1F780E00E9414044E
:100E30008EE191E00E94540260E08DE00E94A600E5
:100E400060E08CE00E94A6001092AD01209709F4AA
:100E500094CF0E945C01882309F48FCF0E94000088
:100E60008CCF893409F0A6CF81E00E94140482E37C
:100E700091E00E94540260E08DE00E94A60061E0D3
:100E800096CFEE0FFF1F0590F491E02D0994F89492
:100E9000FFCF000000009201F2001F01DF015001AE
:100EA0002E014201000000002204F2005102500213
:100EB000456E746572206B65793A0056616C6964A1
:0E0EC00020202000496E76616C6964200000DD
:107E0000112484B714BE81FFF0D085E080938100F7
:107E100082E08093C00088E18093C10086E0809377
:107E2000C20080E18093C4008EE0C9D0259A86E02C
:107E300020E33CEF91E0309385002093840096BBD3
:107E4000B09BFECF1D9AA8958150A9F7CC24DD24C4
:107E500088248394B5E0AB2EA1E19A2EF3E0BF2EE7
:107E6000A2D0813461F49FD0082FAFD0023811F036
:107E7000013811F484E001C083E08DD089C08234E0
:107E800011F484E103C0853419F485E0A6D080C0E4
:107E9000853579F488D0E82EFF2485D0082F10E0AE
:107EA000102F00270E291F29000F111F8ED06801E7
:107EB0006FC0863521F484E090D080E0DECF843638
:107EC00009F040C070D06FD0082F6DD080E0C81688
:107ED00080E7D80618F4F601B7BEE895C0E0D1E017
:107EE00062D089930C17E1F7F0E0CF16F0E7DF06D8
:107EF00018F0F601B7BEE89568D007B600FCFDCFD4
:107F0000A601A0E0B1E02C9130E011968C91119780
:107F100090E0982F8827822B932B1296FA010C0160
:107F200087BEE89511244E5F5F4FF1E0A038BF0790
:107F300051F7F601A7BEE89507B600FCFDCF97BE46
:107F4000E89526C08437B1F42ED02DD0F82E2BD052
:107F50003CD0F601EF2C8F010F5F1F4F84911BD097
:107F6000EA94F801C1F70894C11CD11CFA94CF0C13
:107F7000D11C0EC0853739F428D08EE10CD085E9AC
:107F80000AD08FE07ACF813511F488E018D01DD067
:107F900080E101D065CF982F8091C00085FFFCCF94
:107FA0009093C60008958091C00087FFFCCF809118
:107FB000C00084FD01C0A8958091C6000895E0E648
:107FC000F0E098E1908380830895EDDF803219F02E
:107FD00088E0F5DFFFCF84E1DECF1F93182FE3DFCA
:107FE0001150E9F7F2DF1F91089580E0E8DFEE27F6
:047FF000FF270994CA
:027FFE00040479
:00000001FF
